{
  "contractName": "LuckyDraw",
  "abi": [
    {
      "inputs": [],
      "stateMutability": "nonpayable",
      "type": "constructor"
    },
    {
      "inputs": [],
      "name": "contractBalance",
      "outputs": [
        {
          "internalType": "uint256",
          "name": "",
          "type": "uint256"
        }
      ],
      "stateMutability": "view",
      "type": "function",
      "constant": true
    },
    {
      "inputs": [],
      "name": "manager",
      "outputs": [
        {
          "internalType": "address payable",
          "name": "",
          "type": "address"
        }
      ],
      "stateMutability": "view",
      "type": "function",
      "constant": true
    },
    {
      "inputs": [
        {
          "internalType": "uint256",
          "name": "",
          "type": "uint256"
        }
      ],
      "name": "participants",
      "outputs": [
        {
          "internalType": "address payable",
          "name": "participant_address",
          "type": "address"
        },
        {
          "internalType": "uint256",
          "name": "amount",
          "type": "uint256"
        }
      ],
      "stateMutability": "view",
      "type": "function",
      "constant": true
    },
    {
      "inputs": [],
      "name": "total_participants",
      "outputs": [
        {
          "internalType": "uint256",
          "name": "",
          "type": "uint256"
        }
      ],
      "stateMutability": "view",
      "type": "function",
      "constant": true
    },
    {
      "inputs": [],
      "name": "winner",
      "outputs": [
        {
          "internalType": "address",
          "name": "",
          "type": "address"
        }
      ],
      "stateMutability": "view",
      "type": "function",
      "constant": true
    },
    {
      "inputs": [],
      "name": "enterLuckyDraw",
      "outputs": [],
      "stateMutability": "payable",
      "type": "function",
      "payable": true
    },
    {
      "inputs": [],
      "name": "findWinner",
      "outputs": [],
      "stateMutability": "nonpayable",
      "type": "function"
    },
    {
      "inputs": [],
      "name": "destroyContract",
      "outputs": [],
      "stateMutability": "nonpayable",
      "type": "function"
    }
  ],
  "bytecode": "0x608060405234801561001057600080fd5b5033600360006101000a81548173ffffffffffffffffffffffffffffffffffffffff021916908373ffffffffffffffffffffffffffffffffffffffff16021790555061098f806100616000396000f3fe60806040526004361061007b5760003560e01c80638b7afe2e1161004e5780638b7afe2e1461012b5780638e71decb14610156578063dfbf53ae1461016d578063ef427da6146101985761007b565b8063092a5cce146100805780631818b1e31461009757806335c1d349146100c2578063481c6a7514610100575b600080fd5b34801561008c57600080fd5b506100956101a2565b005b3480156100a357600080fd5b506100ac610237565b6040516100b9919061069d565b60405180910390f35b3480156100ce57600080fd5b506100e960048036038101906100e491906106e9565b61023d565b6040516100f7929190610757565b60405180910390f35b34801561010c57600080fd5b50610115610291565b6040516101229190610780565b60405180910390f35b34801561013757600080fd5b506101406102b7565b60405161014d919061069d565b60405180910390f35b34801561016257600080fd5b5061016b6102bd565b005b34801561017957600080fd5b506101826104ca565b60405161018f91906107bc565b60405180910390f35b6101a06104f0565b005b600360009054906101000a900473ffffffffffffffffffffffffffffffffffffffff1673ffffffffffffffffffffffffffffffffffffffff163373ffffffffffffffffffffffffffffffffffffffff16146101fc57600080fd5b600360009054906101000a900473ffffffffffffffffffffffffffffffffffffffff1673ffffffffffffffffffffffffffffffffffffffff16ff5b60045481565b6002818154811061024d57600080fd5b90600052602060002090600202016000915090508060000160009054906101000a900473ffffffffffffffffffffffffffffffffffffffff16908060010154905082565b600360009054906101000a900473ffffffffffffffffffffffffffffffffffffffff1681565b60055481565b600360009054906101000a900473ffffffffffffffffffffffffffffffffffffffff1673ffffffffffffffffffffffffffffffffffffffff163373ffffffffffffffffffffffffffffffffffffffff161461031757600080fd5b60006004541161032657600080fd5b600061033061062f565b905060028181548110610346576103456107d7565b5b906000526020600020906002020160000160009054906101000a900473ffffffffffffffffffffffffffffffffffffffff16600660006101000a81548173ffffffffffffffffffffffffffffffffffffffff021916908373ffffffffffffffffffffffffffffffffffffffff160217905550600281815481106103cc576103cb6107d7565b5b906000526020600020906002020160000160009054906101000a900473ffffffffffffffffffffffffffffffffffffffff1673ffffffffffffffffffffffffffffffffffffffff166108fc479081150290604051600060405180830381858888f19350505050158015610443573d6000803e3d6000fd5b5060005b6004548110156104be57600280548061046357610462610806565b5b6001900381819060005260206000209060020201600080820160006101000a81549073ffffffffffffffffffffffffffffffffffffffff021916905560018201600090555050905580806104b690610864565b915050610447565b506104c761066f565b50565b600660009054906101000a900473ffffffffffffffffffffffffffffffffffffffff1681565b6706f05b59d3b2000034101561050557600080fd5b60405180604001604052803373ffffffffffffffffffffffffffffffffffffffff168152602001348152506000808201518160000160006101000a81548173ffffffffffffffffffffffffffffffffffffffff021916908373ffffffffffffffffffffffffffffffffffffffff160217905550602082015181600101559050506002600090806001815401808255809150506001900390600052602060002090600202016000909190919091506000820160009054906101000a900473ffffffffffffffffffffffffffffffffffffffff168160000160006101000a81548173ffffffffffffffffffffffffffffffffffffffff021916908373ffffffffffffffffffffffffffffffffffffffff16021790555060018201548160010155505061062d61066f565b565b600060045444426040516020016106479291906108cd565b6040516020818303038152906040528051906020012060001c61066a9190610928565b905090565b47600581905550600280549050600481905550565b6000819050919050565b61069781610684565b82525050565b60006020820190506106b2600083018461068e565b92915050565b600080fd5b6106c681610684565b81146106d157600080fd5b50565b6000813590506106e3816106bd565b92915050565b6000602082840312156106ff576106fe6106b8565b5b600061070d848285016106d4565b91505092915050565b600073ffffffffffffffffffffffffffffffffffffffff82169050919050565b600061074182610716565b9050919050565b61075181610736565b82525050565b600060408201905061076c6000830185610748565b610779602083018461068e565b9392505050565b60006020820190506107956000830184610748565b92915050565b60006107a682610716565b9050919050565b6107b68161079b565b82525050565b60006020820190506107d160008301846107ad565b92915050565b7f4e487b7100000000000000000000000000000000000000000000000000000000600052603260045260246000fd5b7f4e487b7100000000000000000000000000000000000000000000000000000000600052603160045260246000fd5b7f4e487b7100000000000000000000000000000000000000000000000000000000600052601160045260246000fd5b600061086f82610684565b91507fffffffffffffffffffffffffffffffffffffffffffffffffffffffffffffffff82036108a1576108a0610835565b5b600182019050919050565b6000819050919050565b6108c76108c282610684565b6108ac565b82525050565b60006108d982856108b6565b6020820191506108e982846108b6565b6020820191508190509392505050565b7f4e487b7100000000000000000000000000000000000000000000000000000000600052601260045260246000fd5b600061093382610684565b915061093e83610684565b92508261094e5761094d6108f9565b5b82820690509291505056fea2646970667358221220747810aaf31595c0a76a375ef5c6ccf7efe75720a637f0fe5996afac3da43c4b64736f6c634300080d0033",
  "immutableReferences": {},
  "source": "// SPDX-License-Identifier: MIT\npragma solidity >=0.4.22 <0.9.0;\n\ncontract LuckyDraw {\n    struct participant {\n        address payable participant_address;\n        uint amount;\n    }\n\n    participant participantInfo; // create state variable with struct as the reference type\n    participant[] public participants; // Create an array with struct as the reference type\n\n    address payable public manager;\n    uint public total_participants;\n    uint public contractBalance;\n    address public winner;\n\n    modifier isPaymentEnough() {\n        require(msg.value >= 0.5 ether);\n        _;\n    }\n\n    modifier restricted() {\n        require(msg.sender == manager); // Only Manager Can Call This Function\n        _;\n    }\n\n    modifier ifOnlyHasParticipant() {\n        require(total_participants > 0);\n        _;\n    }\n\n    constructor() {\n        /*\n            manager, the public account that deployed the contract \n        */\n        manager = payable(msg.sender);\n    }\n\n    function enterLuckyDraw() public payable isPaymentEnough {\n        participantInfo = participant(payable(msg.sender), msg.value);\n        participants.push(participantInfo);\n\n        updateCondition();\n    }\n\n    /*\n        Randomly generating number in Hexadecimal\n        ( for picking a Random winner )\n        \n        will take 2 values, that possible for outside people to influence the outcome of random number\n        \n        1.  block difficulty \n            is some amount of time to process a actual transaction, \n            that it takes to pick or solve or close a block\n        2.  current time\n        \n    */\n    function random() private view returns (uint) {\n        return\n            uint(\n                keccak256(abi.encodePacked(block.difficulty, block.timestamp))\n            ) % total_participants;\n    }\n\n    function findWinner() public restricted ifOnlyHasParticipant {\n        /*\n            if index = 0 , first player will be a winner \n            if index = 3 , fourth player will be a winner\n        */\n        uint index = random();\n\n        winner = participants[index].participant_address;\n\n        /*\n            Sending the whole contract balance to a winner\n        */\n        participants[index].participant_address.transfer(address(this).balance);\n\n        /*\n            Resetting the contract state\n            Delete all participants and start a new game\n        */\n        // participants = new participant[](0);\n        for (uint x = 0; x < total_participants; x++) {\n            participants.pop();\n        }\n\n        updateCondition();\n    }\n\n    function destroyContract() public restricted {\n        /*\n            sending all funds to the manager public account \n        */\n        selfdestruct(manager);\n    }\n\n    function updateCondition() private {\n        contractBalance = address(this).balance;\n        total_participants = participants.length;\n    }\n}\n",
  "sourcePath": "/home/fabianorodrigo/Projetos/solidity/udemy/lucky_draw/contracts/LuckyDraw.sol",
  "compiler": {
    "name": "solc",
    "version": "0.8.13+commit.abaa5c0e.Emscripten.clang"
  },
  "schemaVersion": "3.4.7",
  "updatedAt": "2022-04-22T17:20:22.358Z",
  "networkType": "ethereum",
  "devdoc": {
    "kind": "dev",
    "methods": {},
    "version": 1
  },
  "userdoc": {
    "kind": "user",
    "methods": {},
    "version": 1
  }
}